{
  "_format": "hh-sol-artifact-1",
  "contractName": "RideSharing",
  "sourceName": "contracts/RideSharing.sol",
  "abi": [
    {
      "inputs": [],
      "stateMutability": "nonpayable",
      "type": "constructor"
    },
    {
      "anonymous": false,
      "inputs": [
        {
          "indexed": true,
          "internalType": "address",
          "name": "user",
          "type": "address"
        },
        {
          "indexed": false,
          "internalType": "uint256",
          "name": "amount",
          "type": "uint256"
        }
      ],
      "name": "FundsWithdrawn",
      "type": "event"
    },
    {
      "anonymous": false,
      "inputs": [
        {
          "indexed": true,
          "internalType": "address",
          "name": "previousOwner",
          "type": "address"
        },
        {
          "indexed": true,
          "internalType": "address",
          "name": "newOwner",
          "type": "address"
        }
      ],
      "name": "OwnershipTransferred",
      "type": "event"
    },
    {
      "anonymous": false,
      "inputs": [
        {
          "indexed": true,
          "internalType": "uint256",
          "name": "rideId",
          "type": "uint256"
        },
        {
          "indexed": true,
          "internalType": "address",
          "name": "driver",
          "type": "address"
        }
      ],
      "name": "RideAccepted",
      "type": "event"
    },
    {
      "anonymous": false,
      "inputs": [
        {
          "indexed": true,
          "internalType": "uint256",
          "name": "rideId",
          "type": "uint256"
        }
      ],
      "name": "RideCancelled",
      "type": "event"
    },
    {
      "anonymous": false,
      "inputs": [
        {
          "indexed": true,
          "internalType": "uint256",
          "name": "rideId",
          "type": "uint256"
        }
      ],
      "name": "RideCompleted",
      "type": "event"
    },
    {
      "anonymous": false,
      "inputs": [
        {
          "indexed": true,
          "internalType": "uint256",
          "name": "rideId",
          "type": "uint256"
        },
        {
          "indexed": true,
          "internalType": "address",
          "name": "rider",
          "type": "address"
        },
        {
          "indexed": false,
          "internalType": "string",
          "name": "pickupLocation",
          "type": "string"
        },
        {
          "indexed": false,
          "internalType": "string",
          "name": "dropoffLocation",
          "type": "string"
        },
        {
          "indexed": false,
          "internalType": "uint256",
          "name": "fare",
          "type": "uint256"
        }
      ],
      "name": "RideRequested",
      "type": "event"
    },
    {
      "anonymous": false,
      "inputs": [
        {
          "indexed": true,
          "internalType": "address",
          "name": "rated",
          "type": "address"
        },
        {
          "indexed": true,
          "internalType": "address",
          "name": "rater",
          "type": "address"
        },
        {
          "indexed": false,
          "internalType": "uint256",
          "name": "rating",
          "type": "uint256"
        }
      ],
      "name": "UserRated",
      "type": "event"
    },
    {
      "anonymous": false,
      "inputs": [
        {
          "indexed": true,
          "internalType": "address",
          "name": "userAddress",
          "type": "address"
        },
        {
          "indexed": false,
          "internalType": "string",
          "name": "name",
          "type": "string"
        },
        {
          "indexed": false,
          "internalType": "enum RideSharing.UserRole",
          "name": "role",
          "type": "uint8"
        }
      ],
      "name": "UserRegistered",
      "type": "event"
    },
    {
      "inputs": [
        {
          "internalType": "uint256",
          "name": "_rideId",
          "type": "uint256"
        }
      ],
      "name": "acceptRide",
      "outputs": [],
      "stateMutability": "nonpayable",
      "type": "function"
    },
    {
      "inputs": [
        {
          "internalType": "uint256",
          "name": "",
          "type": "uint256"
        }
      ],
      "name": "availableDrivers",
      "outputs": [
        {
          "internalType": "address",
          "name": "",
          "type": "address"
        }
      ],
      "stateMutability": "view",
      "type": "function"
    },
    {
      "inputs": [
        {
          "internalType": "address",
          "name": "",
          "type": "address"
        }
      ],
      "name": "balances",
      "outputs": [
        {
          "internalType": "uint256",
          "name": "",
          "type": "uint256"
        }
      ],
      "stateMutability": "view",
      "type": "function"
    },
    {
      "inputs": [
        {
          "internalType": "uint256",
          "name": "_rideId",
          "type": "uint256"
        }
      ],
      "name": "cancelRide",
      "outputs": [],
      "stateMutability": "nonpayable",
      "type": "function"
    },
    {
      "inputs": [
        {
          "internalType": "uint256",
          "name": "_rideId",
          "type": "uint256"
        }
      ],
      "name": "completeRide",
      "outputs": [],
      "stateMutability": "nonpayable",
      "type": "function"
    },
    {
      "inputs": [],
      "name": "getAvailableDrivers",
      "outputs": [
        {
          "internalType": "address[]",
          "name": "",
          "type": "address[]"
        }
      ],
      "stateMutability": "view",
      "type": "function"
    },
    {
      "inputs": [],
      "name": "getPlatformFeePercentage",
      "outputs": [
        {
          "internalType": "uint256",
          "name": "",
          "type": "uint256"
        }
      ],
      "stateMutability": "view",
      "type": "function"
    },
    {
      "inputs": [
        {
          "internalType": "address",
          "name": "_user",
          "type": "address"
        }
      ],
      "name": "getUserBalance",
      "outputs": [
        {
          "internalType": "uint256",
          "name": "",
          "type": "uint256"
        }
      ],
      "stateMutability": "view",
      "type": "function"
    },
    {
      "inputs": [
        {
          "internalType": "address",
          "name": "_user",
          "type": "address"
        }
      ],
      "name": "getUserRating",
      "outputs": [
        {
          "internalType": "uint256",
          "name": "",
          "type": "uint256"
        }
      ],
      "stateMutability": "view",
      "type": "function"
    },
    {
      "inputs": [
        {
          "internalType": "address",
          "name": "_user",
          "type": "address"
        }
      ],
      "name": "getUserRides",
      "outputs": [
        {
          "internalType": "uint256[]",
          "name": "",
          "type": "uint256[]"
        }
      ],
      "stateMutability": "view",
      "type": "function"
    },
    {
      "inputs": [],
      "name": "owner",
      "outputs": [
        {
          "internalType": "address",
          "name": "",
          "type": "address"
        }
      ],
      "stateMutability": "view",
      "type": "function"
    },
    {
      "inputs": [
        {
          "internalType": "address",
          "name": "_user",
          "type": "address"
        },
        {
          "internalType": "uint256",
          "name": "_rating",
          "type": "uint256"
        }
      ],
      "name": "rateUser",
      "outputs": [],
      "stateMutability": "nonpayable",
      "type": "function"
    },
    {
      "inputs": [
        {
          "internalType": "string",
          "name": "_name",
          "type": "string"
        },
        {
          "internalType": "string",
          "name": "_phoneNumber",
          "type": "string"
        },
        {
          "internalType": "enum RideSharing.UserRole",
          "name": "_role",
          "type": "uint8"
        }
      ],
      "name": "registerUser",
      "outputs": [],
      "stateMutability": "nonpayable",
      "type": "function"
    },
    {
      "inputs": [],
      "name": "renounceOwnership",
      "outputs": [],
      "stateMutability": "nonpayable",
      "type": "function"
    },
    {
      "inputs": [
        {
          "internalType": "string",
          "name": "_pickupLocation",
          "type": "string"
        },
        {
          "internalType": "string",
          "name": "_dropoffLocation",
          "type": "string"
        },
        {
          "internalType": "uint256",
          "name": "_fare",
          "type": "uint256"
        }
      ],
      "name": "requestRide",
      "outputs": [],
      "stateMutability": "payable",
      "type": "function"
    },
    {
      "inputs": [
        {
          "internalType": "uint256",
          "name": "",
          "type": "uint256"
        }
      ],
      "name": "rides",
      "outputs": [
        {
          "internalType": "uint256",
          "name": "id",
          "type": "uint256"
        },
        {
          "internalType": "address",
          "name": "rider",
          "type": "address"
        },
        {
          "internalType": "address",
          "name": "driver",
          "type": "address"
        },
        {
          "internalType": "string",
          "name": "pickupLocation",
          "type": "string"
        },
        {
          "internalType": "string",
          "name": "dropoffLocation",
          "type": "string"
        },
        {
          "internalType": "uint256",
          "name": "fare",
          "type": "uint256"
        },
        {
          "internalType": "uint256",
          "name": "timestamp",
          "type": "uint256"
        },
        {
          "internalType": "enum RideSharing.RideStatus",
          "name": "status",
          "type": "uint8"
        },
        {
          "internalType": "bool",
          "name": "isRated",
          "type": "bool"
        }
      ],
      "stateMutability": "view",
      "type": "function"
    },
    {
      "inputs": [
        {
          "internalType": "uint256",
          "name": "_feePercentage",
          "type": "uint256"
        }
      ],
      "name": "setPlatformFeePercentage",
      "outputs": [],
      "stateMutability": "nonpayable",
      "type": "function"
    },
    {
      "inputs": [
        {
          "internalType": "address",
          "name": "newOwner",
          "type": "address"
        }
      ],
      "name": "transferOwnership",
      "outputs": [],
      "stateMutability": "nonpayable",
      "type": "function"
    },
    {
      "inputs": [
        {
          "internalType": "address",
          "name": "",
          "type": "address"
        },
        {
          "internalType": "uint256",
          "name": "",
          "type": "uint256"
        }
      ],
      "name": "userRides",
      "outputs": [
        {
          "internalType": "uint256",
          "name": "",
          "type": "uint256"
        }
      ],
      "stateMutability": "view",
      "type": "function"
    },
    {
      "inputs": [
        {
          "internalType": "address",
          "name": "",
          "type": "address"
        }
      ],
      "name": "users",
      "outputs": [
        {
          "internalType": "address",
          "name": "wallet",
          "type": "address"
        },
        {
          "internalType": "string",
          "name": "name",
          "type": "string"
        },
        {
          "internalType": "string",
          "name": "phoneNumber",
          "type": "string"
        },
        {
          "internalType": "enum RideSharing.UserRole",
          "name": "role",
          "type": "uint8"
        },
        {
          "internalType": "bool",
          "name": "isRegistered",
          "type": "bool"
        },
        {
          "internalType": "uint256",
          "name": "rating",
          "type": "uint256"
        },
        {
          "internalType": "uint256",
          "name": "totalRatings",
          "type": "uint256"
        }
      ],
      "stateMutability": "view",
      "type": "function"
    },
    {
      "inputs": [],
      "name": "withdrawFunds",
      "outputs": [],
      "stateMutability": "nonpayable",
      "type": "function"
    },
    {
      "inputs": [],
      "name": "withdrawPlatformFees",
      "outputs": [],
      "stateMutability": "nonpayable",
      "type": "function"
    }
  ],
  "bytecode": "0x60806040523480156200001157600080fd5b5062000032620000266200004860201b60201c565b6200005060201b60201c565b600180819055506101f460038190555062000114565b600033905090565b60008060009054906101000a900473ffffffffffffffffffffffffffffffffffffffff169050816000806101000a81548173ffffffffffffffffffffffffffffffffffffffff021916908373ffffffffffffffffffffffffffffffffffffffff1602179055508173ffffffffffffffffffffffffffffffffffffffff168173ffffffffffffffffffffffffffffffffffffffff167f8be0079c531659141344cd1fd0a4f28419497f9722a3daafe3b4186f6b6457e060405160405180910390a35050565b6140c080620001246000396000f3fe6080604052600436106101355760003560e01c80638333903e116100ab578063bde208bd1161006f578063bde208bd14610425578063c416dd0b14610462578063c51562cb1461048b578063cdfa7dc6146104b4578063d0b7830b146104f1578063f2fde38b1461050857610135565b80638333903e1461033a57806383c81286146103635780638da5cb5b1461038e578063a6f07b29146103b9578063a87430ba146103e257610135565b806347734892116100fd578063477348921461021d5780635205f1121461025a5780635a4d1b2e1461029f578063715018a6146102bb5780637a3a27ea146102d25780637c0351d1146102fd57610135565b806324600fc31461013a57806327e235e3146101515780632e17a9311461018e5780633d4effc4146101b7578063460168c3146101e0575b600080fd5b34801561014657600080fd5b5061014f610531565b005b34801561015d57600080fd5b5061017860048036038101906101739190612a54565b610734565b6040516101859190612a9a565b60405180910390f35b34801561019a57600080fd5b506101b560048036038101906101b09190612c20565b61074c565b005b3480156101c357600080fd5b506101de60048036038101906101d99190612cd7565b610a39565b005b3480156101ec57600080fd5b5061020760048036038101906102029190612a54565b610cf6565b6040516102149190612a9a565b60405180910390f35b34801561022957600080fd5b50610244600480360381019061023f9190612a54565b610dd1565b6040516102519190612a9a565b60405180910390f35b34801561026657600080fd5b50610281600480360381019061027c9190612d17565b610e1a565b60405161029699989796959493929190612e64565b60405180910390f35b6102b960048036038101906102b49190612eff565b610fd2565b005b3480156102c757600080fd5b506102d06113c3565b005b3480156102de57600080fd5b506102e76113d7565b6040516102f49190612a9a565b60405180910390f35b34801561030957600080fd5b50610324600480360381019061031f9190612a54565b6113e1565b6040516103319190613048565b60405180910390f35b34801561034657600080fd5b50610361600480360381019061035c9190612d17565b611478565b005b34801561036f57600080fd5b506103786114cf565b6040516103859190613128565b60405180910390f35b34801561039a57600080fd5b506103a361155d565b6040516103b0919061314a565b60405180910390f35b3480156103c557600080fd5b506103e060048036038101906103db9190612d17565b611586565b005b3480156103ee57600080fd5b5061040960048036038101906104049190612a54565b61198e565b60405161041c97969594939291906131ad565b60405180910390f35b34801561043157600080fd5b5061044c60048036038101906104479190612d17565b611b1a565b604051610459919061314a565b60405180910390f35b34801561046e57600080fd5b5061048960048036038101906104849190612d17565b611b59565b005b34801561049757600080fd5b506104b260048036038101906104ad9190612d17565b611f51565b005b3480156104c057600080fd5b506104db60048036038101906104d69190612cd7565b6122ed565b6040516104e89190612a9a565b60405180910390f35b3480156104fd57600080fd5b5061050661231e565b005b34801561051457600080fd5b5061052f600480360381019061052a9190612a54565b6123cf565b005b600460003373ffffffffffffffffffffffffffffffffffffffff1673ffffffffffffffffffffffffffffffffffffffff16815260200190815260200160002060030160019054906101000a900460ff166105c0576040517f08c379a00000000000000000000000000000000000000000000000000000000081526004016105b790613276565b60405180910390fd5b6105c8612452565b6000600760003373ffffffffffffffffffffffffffffffffffffffff1673ffffffffffffffffffffffffffffffffffffffff1681526020019081526020016000205490506000811161064f576040517f08c379a0000000000000000000000000000000000000000000000000000000008152600401610646906132e2565b60405180910390fd5b6000600760003373ffffffffffffffffffffffffffffffffffffffff1673ffffffffffffffffffffffffffffffffffffffff168152602001908152602001600020819055503373ffffffffffffffffffffffffffffffffffffffff166108fc829081150290604051600060405180830381858888f193505050501580156106da573d6000803e3d6000fd5b503373ffffffffffffffffffffffffffffffffffffffff167feaff4b37086828766ad3268786972c0cd24259d4c87a80f9d3963a3c3d999b0d826040516107219190612a9a565b60405180910390a2506107326124a1565b565b60076020528060005260406000206000915090505481565b600460003373ffffffffffffffffffffffffffffffffffffffff1673ffffffffffffffffffffffffffffffffffffffff16815260200190815260200160002060030160019054906101000a900460ff16156107dc576040517f08c379a00000000000000000000000000000000000000000000000000000000081526004016107d39061334e565b60405180910390fd5b6040518060e001604052803373ffffffffffffffffffffffffffffffffffffffff16815260200184815260200183815260200182600181111561082257610821612dd2565b5b8152602001600115158152602001600081526020016000815250600460003373ffffffffffffffffffffffffffffffffffffffff1673ffffffffffffffffffffffffffffffffffffffff16815260200190815260200160002060008201518160000160006101000a81548173ffffffffffffffffffffffffffffffffffffffff021916908373ffffffffffffffffffffffffffffffffffffffff16021790555060208201518160010190816108d7919061357a565b5060408201518160020190816108ed919061357a565b5060608201518160030160006101000a81548160ff0219169083600181111561091957610918612dd2565b5b021790555060808201518160030160016101000a81548160ff02191690831515021790555060a0820151816004015560c0820151816005015590505060018081111561096857610967612dd2565b5b81600181111561097b5761097a612dd2565b5b036109e4576008339080600181540180825580915050600190039060005260206000200160009091909190916101000a81548173ffffffffffffffffffffffffffffffffffffffff021916908373ffffffffffffffffffffffffffffffffffffffff1602179055505b3373ffffffffffffffffffffffffffffffffffffffff167fc2e5d5da58bd71d1a2d14cdef02a4256d971b728088f8190d067ccfbae3bd73e8483604051610a2c92919061364c565b60405180910390a2505050565b600460003373ffffffffffffffffffffffffffffffffffffffff1673ffffffffffffffffffffffffffffffffffffffff16815260200190815260200160002060030160019054906101000a900460ff16610ac8576040517f08c379a0000000000000000000000000000000000000000000000000000000008152600401610abf90613276565b60405180910390fd5b60018110158015610ada575060058111155b610b19576040517f08c379a0000000000000000000000000000000000000000000000000000000008152600401610b10906136c8565b60405180910390fd5b600460008373ffffffffffffffffffffffffffffffffffffffff1673ffffffffffffffffffffffffffffffffffffffff16815260200190815260200160002060030160019054906101000a900460ff16610ba8576040517f08c379a0000000000000000000000000000000000000000000000000000000008152600401610b9f90613734565b60405180910390fd5b610bb233836124aa565b610bf1576040517f08c379a0000000000000000000000000000000000000000000000000000000008152600401610be8906137c6565b60405180910390fd5b6000600460008473ffffffffffffffffffffffffffffffffffffffff1673ffffffffffffffffffffffffffffffffffffffff1681526020019081526020016000209050600081600501548260040154610c4a9190613815565b90506001826005016000828254610c619190613857565b9250508190555081600501548382610c799190613857565b610c8391906138ba565b82600401819055503373ffffffffffffffffffffffffffffffffffffffff168473ffffffffffffffffffffffffffffffffffffffff167f5d7810bb85751be82d8965293f081a3833be22a320a0ad50eeae86b00251a5b385604051610ce89190612a9a565b60405180910390a350505050565b6000600460008373ffffffffffffffffffffffffffffffffffffffff1673ffffffffffffffffffffffffffffffffffffffff16815260200190815260200160002060030160019054906101000a900460ff16610d87576040517f08c379a0000000000000000000000000000000000000000000000000000000008152600401610d7e90613276565b60405180910390fd5b600460008373ffffffffffffffffffffffffffffffffffffffff1673ffffffffffffffffffffffffffffffffffffffff168152602001908152602001600020600401549050919050565b6000600760008373ffffffffffffffffffffffffffffffffffffffff1673ffffffffffffffffffffffffffffffffffffffff168152602001908152602001600020549050919050565b60056020528060005260406000206000915090508060000154908060010160009054906101000a900473ffffffffffffffffffffffffffffffffffffffff16908060020160009054906101000a900473ffffffffffffffffffffffffffffffffffffffff1690806003018054610e8f9061339d565b80601f0160208091040260200160405190810160405280929190818152602001828054610ebb9061339d565b8015610f085780601f10610edd57610100808354040283529160200191610f08565b820191906000526020600020905b815481529060010190602001808311610eeb57829003601f168201915b505050505090806004018054610f1d9061339d565b80601f0160208091040260200160405190810160405280929190818152602001828054610f499061339d565b8015610f965780601f10610f6b57610100808354040283529160200191610f96565b820191906000526020600020905b815481529060010190602001808311610f7957829003601f168201915b5050505050908060050154908060060154908060070160009054906101000a900460ff16908060070160019054906101000a900460ff16905089565b600460003373ffffffffffffffffffffffffffffffffffffffff1673ffffffffffffffffffffffffffffffffffffffff16815260200190815260200160002060030160019054906101000a900460ff1680156110a157506000600181111561103d5761103c612dd2565b5b600460003373ffffffffffffffffffffffffffffffffffffffff1673ffffffffffffffffffffffffffffffffffffffff16815260200190815260200160002060030160009054906101000a900460ff16600181111561109f5761109e612dd2565b5b145b6110e0576040517f08c379a00000000000000000000000000000000000000000000000000000000081526004016110d79061395d565b60405180910390fd5b80341015611123576040517f08c379a000000000000000000000000000000000000000000000000000000000815260040161111a906139c9565b60405180910390fd5b60405180610120016040528060025481526020013373ffffffffffffffffffffffffffffffffffffffff168152602001600073ffffffffffffffffffffffffffffffffffffffff1681526020018481526020018381526020018281526020014281526020016000600381111561119c5761119b612dd2565b5b8152602001600015158152506005600060025481526020019081526020016000206000820151816000015560208201518160010160006101000a81548173ffffffffffffffffffffffffffffffffffffffff021916908373ffffffffffffffffffffffffffffffffffffffff16021790555060408201518160020160006101000a81548173ffffffffffffffffffffffffffffffffffffffff021916908373ffffffffffffffffffffffffffffffffffffffff160217905550606082015181600301908161126a919061357a565b506080820151816004019081611280919061357a565b5060a0820151816005015560c0820151816006015560e08201518160070160006101000a81548160ff021916908360038111156112c0576112bf612dd2565b5b02179055506101008201518160070160016101000a81548160ff021916908315150217905550905050600660003373ffffffffffffffffffffffffffffffffffffffff1673ffffffffffffffffffffffffffffffffffffffff16815260200190815260200160002060025490806001815401808255809150506001900390600052602060002001600090919091909150553373ffffffffffffffffffffffffffffffffffffffff166002547f6df8a9fd56bc145c1b2254aea11dc4363ff4440765898a9bfeabe8b5d2fbce1185858560405161139e939291906139e9565b60405180910390a3600260008154809291906113b990613a2e565b9190505550505050565b6113cb612708565b6113d56000612786565b565b6000600354905090565b6060600660008373ffffffffffffffffffffffffffffffffffffffff1673ffffffffffffffffffffffffffffffffffffffff16815260200190815260200160002080548060200260200160405190810160405280929190818152602001828054801561146c57602002820191906000526020600020905b815481526020019060010190808311611458575b50505050509050919050565b611480612708565b610bb88111156114c5576040517f08c379a00000000000000000000000000000000000000000000000000000000081526004016114bc90613ac2565b60405180910390fd5b8060038190555050565b6060600880548060200260200160405190810160405280929190818152602001828054801561155357602002820191906000526020600020905b8160009054906101000a900473ffffffffffffffffffffffffffffffffffffffff1673ffffffffffffffffffffffffffffffffffffffff1681526020019060010190808311611509575b5050505050905090565b60008060009054906101000a900473ffffffffffffffffffffffffffffffffffffffff16905090565b8060025481106115cb576040517f08c379a00000000000000000000000000000000000000000000000000000000081526004016115c290613b2e565b60405180910390fd5b6000600560008481526020019081526020016000209050600060038111156115f6576115f5612dd2565b5b8160070160009054906101000a900460ff16600381111561161a57611619612dd2565b5b148061165b57506001600381111561163557611634612dd2565b5b8160070160009054906101000a900460ff16600381111561165957611658612dd2565b5b145b61169a576040517f08c379a000000000000000000000000000000000000000000000000000000000815260040161169190613b9a565b60405180910390fd5b8060010160009054906101000a900473ffffffffffffffffffffffffffffffffffffffff1673ffffffffffffffffffffffffffffffffffffffff163373ffffffffffffffffffffffffffffffffffffffff16148061174757508060020160009054906101000a900473ffffffffffffffffffffffffffffffffffffffff1673ffffffffffffffffffffffffffffffffffffffff163373ffffffffffffffffffffffffffffffffffffffff16145b611786576040517f08c379a000000000000000000000000000000000000000000000000000000000815260040161177d90613c06565b60405180910390fd5b60038160070160006101000a81548160ff021916908360038111156117ae576117ad612dd2565b5b0217905550600060038111156117c7576117c6612dd2565b5b8160070160009054906101000a900460ff1660038111156117eb576117ea612dd2565b5b148061182c57506001600381111561180657611805612dd2565b5b8160070160009054906101000a900460ff16600381111561182a57611829612dd2565b5b145b156118a1578060010160009054906101000a900473ffffffffffffffffffffffffffffffffffffffff1673ffffffffffffffffffffffffffffffffffffffff166108fc82600501549081150290604051600060405180830381858888f1935050505015801561189f573d6000803e3d6000fd5b505b8060020160009054906101000a900473ffffffffffffffffffffffffffffffffffffffff1673ffffffffffffffffffffffffffffffffffffffff163373ffffffffffffffffffffffffffffffffffffffff160361195c576008339080600181540180825580915050600190039060005260206000200160009091909190916101000a81548173ffffffffffffffffffffffffffffffffffffffff021916908373ffffffffffffffffffffffffffffffffffffffff1602179055505b827f0c23eb44b06124e00526761c3c77095fc814bb72c9be3ac1e58f0bc2ebfe4f7e60405160405180910390a2505050565b60046020528060005260406000206000915090508060000160009054906101000a900473ffffffffffffffffffffffffffffffffffffffff16908060010180546119d79061339d565b80601f0160208091040260200160405190810160405280929190818152602001828054611a039061339d565b8015611a505780601f10611a2557610100808354040283529160200191611a50565b820191906000526020600020905b815481529060010190602001808311611a3357829003601f168201915b505050505090806002018054611a659061339d565b80601f0160208091040260200160405190810160405280929190818152602001828054611a919061339d565b8015611ade5780601f10611ab357610100808354040283529160200191611ade565b820191906000526020600020905b815481529060010190602001808311611ac157829003601f168201915b5050505050908060030160009054906101000a900460ff16908060030160019054906101000a900460ff16908060040154908060050154905087565b60088181548110611b2a57600080fd5b906000526020600020016000915054906101000a900473ffffffffffffffffffffffffffffffffffffffff1681565b600460003373ffffffffffffffffffffffffffffffffffffffff1673ffffffffffffffffffffffffffffffffffffffff16815260200190815260200160002060030160019054906101000a900460ff168015611c275750600180811115611bc357611bc2612dd2565b5b600460003373ffffffffffffffffffffffffffffffffffffffff1673ffffffffffffffffffffffffffffffffffffffff16815260200190815260200160002060030160009054906101000a900460ff166001811115611c2557611c24612dd2565b5b145b611c66576040517f08c379a0000000000000000000000000000000000000000000000000000000008152600401611c5d90613c98565b60405180910390fd5b806002548110611cab576040517f08c379a0000000000000000000000000000000000000000000000000000000008152600401611ca290613b2e565b60405180910390fd5b611cb3612452565b60006005600084815260200190815260200160002090503373ffffffffffffffffffffffffffffffffffffffff168160020160009054906101000a900473ffffffffffffffffffffffffffffffffffffffff1673ffffffffffffffffffffffffffffffffffffffff1614611d5c576040517f08c379a0000000000000000000000000000000000000000000000000000000008152600401611d5390613d2a565b60405180910390fd5b60016003811115611d7057611d6f612dd2565b5b8160070160009054906101000a900460ff166003811115611d9457611d93612dd2565b5b14611dd4576040517f08c379a0000000000000000000000000000000000000000000000000000000008152600401611dcb90613d96565b60405180910390fd5b60028160070160006101000a81548160ff02191690836003811115611dfc57611dfb612dd2565b5b021790555060006127106003548360050154611e189190613815565b611e2291906138ba565b90506000818360050154611e369190613db6565b905080600760008560020160009054906101000a900473ffffffffffffffffffffffffffffffffffffffff1673ffffffffffffffffffffffffffffffffffffffff1673ffffffffffffffffffffffffffffffffffffffff1681526020019081526020016000206000828254611eab9190613857565b925050819055506008339080600181540180825580915050600190039060005260206000200160009091909190916101000a81548173ffffffffffffffffffffffffffffffffffffffff021916908373ffffffffffffffffffffffffffffffffffffffff160217905550847f63e5b4bf8bc6c9cf867e6cc4d53f654c1f0365d975100e04129de6383f8c4b2360405160405180910390a2505050611f4d6124a1565b5050565b600460003373ffffffffffffffffffffffffffffffffffffffff1673ffffffffffffffffffffffffffffffffffffffff16815260200190815260200160002060030160019054906101000a900460ff16801561201f5750600180811115611fbb57611fba612dd2565b5b600460003373ffffffffffffffffffffffffffffffffffffffff1673ffffffffffffffffffffffffffffffffffffffff16815260200190815260200160002060030160009054906101000a900460ff16600181111561201d5761201c612dd2565b5b145b61205e576040517f08c379a000000000000000000000000000000000000000000000000000000000815260040161205590613c98565b60405180910390fd5b8060025481106120a3576040517f08c379a000000000000000000000000000000000000000000000000000000000815260040161209a90613b2e565b60405180910390fd5b6000600560008481526020019081526020016000209050600060038111156120ce576120cd612dd2565b5b8160070160009054906101000a900460ff1660038111156120f2576120f1612dd2565b5b14612132576040517f08c379a000000000000000000000000000000000000000000000000000000000815260040161212990613e36565b60405180910390fd5b600073ffffffffffffffffffffffffffffffffffffffff168160020160009054906101000a900473ffffffffffffffffffffffffffffffffffffffff1673ffffffffffffffffffffffffffffffffffffffff16146121c5576040517f08c379a00000000000000000000000000000000000000000000000000000000081526004016121bc90613ea2565b60405180910390fd5b338160020160006101000a81548173ffffffffffffffffffffffffffffffffffffffff021916908373ffffffffffffffffffffffffffffffffffffffff16021790555060018160070160006101000a81548160ff021916908360038111156122305761222f612dd2565b5b021790555061223e3361284a565b600660003373ffffffffffffffffffffffffffffffffffffffff1673ffffffffffffffffffffffffffffffffffffffff1681526020019081526020016000208390806001815401808255809150506001900390600052602060002001600090919091909150553373ffffffffffffffffffffffffffffffffffffffff16837fcb890c33fd108e736800f548e422bb587b58384dea0bbc2849e4b904ce455bbc60405160405180910390a3505050565b6006602052816000526040600020818154811061230957600080fd5b90600052602060002001600091509150505481565b612326612708565b61232e612452565b600047905060008111612376576040517f08c379a000000000000000000000000000000000000000000000000000000000815260040161236d906132e2565b60405180910390fd5b61237e61155d565b73ffffffffffffffffffffffffffffffffffffffff166108fc829081150290604051600060405180830381858888f193505050501580156123c3573d6000803e3d6000fd5b50506123cd6124a1565b565b6123d7612708565b600073ffffffffffffffffffffffffffffffffffffffff168173ffffffffffffffffffffffffffffffffffffffff1603612446576040517f08c379a000000000000000000000000000000000000000000000000000000000815260040161243d90613f34565b60405180910390fd5b61244f81612786565b50565b600260015403612497576040517f08c379a000000000000000000000000000000000000000000000000000000000815260040161248e90613fa0565b60405180910390fd5b6002600181905550565b60018081905550565b600080600090505b600660008573ffffffffffffffffffffffffffffffffffffffff1673ffffffffffffffffffffffffffffffffffffffff168152602001908152602001600020805490508110156126fc576000600660008673ffffffffffffffffffffffffffffffffffffffff1673ffffffffffffffffffffffffffffffffffffffff168152602001908152602001600020828154811061254f5761254e613fc0565b5b9060005260206000200154905060006005600083815260200190815260200160002090508573ffffffffffffffffffffffffffffffffffffffff168160010160009054906101000a900473ffffffffffffffffffffffffffffffffffffffff1673ffffffffffffffffffffffffffffffffffffffff1614801561262157508473ffffffffffffffffffffffffffffffffffffffff168160020160009054906101000a900473ffffffffffffffffffffffffffffffffffffffff1673ffffffffffffffffffffffffffffffffffffffff16145b806126d657508473ffffffffffffffffffffffffffffffffffffffff168160010160009054906101000a900473ffffffffffffffffffffffffffffffffffffffff1673ffffffffffffffffffffffffffffffffffffffff161480156126d557508573ffffffffffffffffffffffffffffffffffffffff168160020160009054906101000a900473ffffffffffffffffffffffffffffffffffffffff1673ffffffffffffffffffffffffffffffffffffffff16145b5b156126e75760019350505050612702565b505080806126f490613a2e565b9150506124b2565b50600090505b92915050565b6127106129da565b73ffffffffffffffffffffffffffffffffffffffff1661272e61155d565b73ffffffffffffffffffffffffffffffffffffffff1614612784576040517f08c379a000000000000000000000000000000000000000000000000000000000815260040161277b9061403b565b60405180910390fd5b565b60008060009054906101000a900473ffffffffffffffffffffffffffffffffffffffff169050816000806101000a81548173ffffffffffffffffffffffffffffffffffffffff021916908373ffffffffffffffffffffffffffffffffffffffff1602179055508173ffffffffffffffffffffffffffffffffffffffff168173ffffffffffffffffffffffffffffffffffffffff167f8be0079c531659141344cd1fd0a4f28419497f9722a3daafe3b4186f6b6457e060405160405180910390a35050565b60005b6008805490508110156129d6578173ffffffffffffffffffffffffffffffffffffffff166008828154811061288557612884613fc0565b5b9060005260206000200160009054906101000a900473ffffffffffffffffffffffffffffffffffffffff1673ffffffffffffffffffffffffffffffffffffffff16036129c357600860016008805490506128df9190613db6565b815481106128f0576128ef613fc0565b5b9060005260206000200160009054906101000a900473ffffffffffffffffffffffffffffffffffffffff166008828154811061292f5761292e613fc0565b5b9060005260206000200160006101000a81548173ffffffffffffffffffffffffffffffffffffffff021916908373ffffffffffffffffffffffffffffffffffffffff16021790555060088054806129895761298861405b565b5b6001900381819060005260206000200160006101000a81549073ffffffffffffffffffffffffffffffffffffffff021916905590556129d6565b80806129ce90613a2e565b91505061284d565b5050565b600033905090565b6000604051905090565b600080fd5b600080fd5b600073ffffffffffffffffffffffffffffffffffffffff82169050919050565b6000612a21826129f6565b9050919050565b612a3181612a16565b8114612a3c57600080fd5b50565b600081359050612a4e81612a28565b92915050565b600060208284031215612a6a57612a696129ec565b5b6000612a7884828501612a3f565b91505092915050565b6000819050919050565b612a9481612a81565b82525050565b6000602082019050612aaf6000830184612a8b565b92915050565b600080fd5b600080fd5b6000601f19601f8301169050919050565b7f4e487b7100000000000000000000000000000000000000000000000000000000600052604160045260246000fd5b612b0882612abf565b810181811067ffffffffffffffff82111715612b2757612b26612ad0565b5b80604052505050565b6000612b3a6129e2565b9050612b468282612aff565b919050565b600067ffffffffffffffff821115612b6657612b65612ad0565b5b612b6f82612abf565b9050602081019050919050565b82818337600083830152505050565b6000612b9e612b9984612b4b565b612b30565b905082815260208101848484011115612bba57612bb9612aba565b5b612bc5848285612b7c565b509392505050565b600082601f830112612be257612be1612ab5565b5b8135612bf2848260208601612b8b565b91505092915050565b60028110612c0857600080fd5b50565b600081359050612c1a81612bfb565b92915050565b600080600060608486031215612c3957612c386129ec565b5b600084013567ffffffffffffffff811115612c5757612c566129f1565b5b612c6386828701612bcd565b935050602084013567ffffffffffffffff811115612c8457612c836129f1565b5b612c9086828701612bcd565b9250506040612ca186828701612c0b565b9150509250925092565b612cb481612a81565b8114612cbf57600080fd5b50565b600081359050612cd181612cab565b92915050565b60008060408385031215612cee57612ced6129ec565b5b6000612cfc85828601612a3f565b9250506020612d0d85828601612cc2565b9150509250929050565b600060208284031215612d2d57612d2c6129ec565b5b6000612d3b84828501612cc2565b91505092915050565b612d4d81612a16565b82525050565b600081519050919050565b600082825260208201905092915050565b60005b83811015612d8d578082015181840152602081019050612d72565b60008484015250505050565b6000612da482612d53565b612dae8185612d5e565b9350612dbe818560208601612d6f565b612dc781612abf565b840191505092915050565b7f4e487b7100000000000000000000000000000000000000000000000000000000600052602160045260246000fd5b60048110612e1257612e11612dd2565b5b50565b6000819050612e2382612e01565b919050565b6000612e3382612e15565b9050919050565b612e4381612e28565b82525050565b60008115159050919050565b612e5e81612e49565b82525050565b600061012082019050612e7a600083018c612a8b565b612e87602083018b612d44565b612e94604083018a612d44565b8181036060830152612ea68189612d99565b90508181036080830152612eba8188612d99565b9050612ec960a0830187612a8b565b612ed660c0830186612a8b565b612ee360e0830185612e3a565b612ef1610100830184612e55565b9a9950505050505050505050565b600080600060608486031215612f1857612f176129ec565b5b600084013567ffffffffffffffff811115612f3657612f356129f1565b5b612f4286828701612bcd565b935050602084013567ffffffffffffffff811115612f6357612f626129f1565b5b612f6f86828701612bcd565b9250506040612f8086828701612cc2565b9150509250925092565b600081519050919050565b600082825260208201905092915050565b6000819050602082019050919050565b612fbf81612a81565b82525050565b6000612fd18383612fb6565b60208301905092915050565b6000602082019050919050565b6000612ff582612f8a565b612fff8185612f95565b935061300a83612fa6565b8060005b8381101561303b5781516130228882612fc5565b975061302d83612fdd565b92505060018101905061300e565b5085935050505092915050565b600060208201905081810360008301526130628184612fea565b905092915050565b600081519050919050565b600082825260208201905092915050565b6000819050602082019050919050565b61309f81612a16565b82525050565b60006130b18383613096565b60208301905092915050565b6000602082019050919050565b60006130d58261306a565b6130df8185613075565b93506130ea83613086565b8060005b8381101561311b57815161310288826130a5565b975061310d836130bd565b9250506001810190506130ee565b5085935050505092915050565b6000602082019050818103600083015261314281846130ca565b905092915050565b600060208201905061315f6000830184612d44565b92915050565b6002811061317657613175612dd2565b5b50565b600081905061318782613165565b919050565b600061319782613179565b9050919050565b6131a78161318c565b82525050565b600060e0820190506131c2600083018a612d44565b81810360208301526131d48189612d99565b905081810360408301526131e88188612d99565b90506131f7606083018761319e565b6132046080830186612e55565b61321160a0830185612a8b565b61321e60c0830184612a8b565b98975050505050505050565b7f55736572206e6f74207265676973746572656400000000000000000000000000600082015250565b6000613260601383612d5e565b915061326b8261322a565b602082019050919050565b6000602082019050818103600083015261328f81613253565b9050919050565b7f4e6f2066756e647320746f207769746864726177000000000000000000000000600082015250565b60006132cc601483612d5e565b91506132d782613296565b602082019050919050565b600060208201905081810360008301526132fb816132bf565b9050919050565b7f5573657220616c72656164792072656769737465726564000000000000000000600082015250565b6000613338601783612d5e565b915061334382613302565b602082019050919050565b600060208201905081810360008301526133678161332b565b9050919050565b7f4e487b7100000000000000000000000000000000000000000000000000000000600052602260045260246000fd5b600060028204905060018216806133b557607f821691505b6020821081036133c8576133c761336e565b5b50919050565b60008190508160005260206000209050919050565b60006020601f8301049050919050565b600082821b905092915050565b6000600883026134307fffffffffffffffffffffffffffffffffffffffffffffffffffffffffffffffff826133f3565b61343a86836133f3565b95508019841693508086168417925050509392505050565b6000819050919050565b600061347761347261346d84612a81565b613452565b612a81565b9050919050565b6000819050919050565b6134918361345c565b6134a561349d8261347e565b848454613400565b825550505050565b600090565b6134ba6134ad565b6134c5818484613488565b505050565b5b818110156134e9576134de6000826134b2565b6001810190506134cb565b5050565b601f82111561352e576134ff816133ce565b613508846133e3565b81016020851015613517578190505b61352b613523856133e3565b8301826134ca565b50505b505050565b600082821c905092915050565b600061355160001984600802613533565b1980831691505092915050565b600061356a8383613540565b9150826002028217905092915050565b61358382612d53565b67ffffffffffffffff81111561359c5761359b612ad0565b5b6135a6825461339d565b6135b18282856134ed565b600060209050601f8311600181146135e457600084156135d2578287015190505b6135dc858261355e565b865550613644565b601f1984166135f2866133ce565b60005b8281101561361a578489015182556001820191506020850194506020810190506135f5565b868310156136375784890151613633601f891682613540565b8355505b6001600288020188555050505b505050505050565b600060408201905081810360008301526136668185612d99565b9050613675602083018461319e565b9392505050565b7f526174696e67206d757374206265206265747765656e203120616e6420350000600082015250565b60006136b2601e83612d5e565b91506136bd8261367c565b602082019050919050565b600060208201905081810360008301526136e1816136a5565b9050919050565b7f5573657220746f2072617465206973206e6f7420726567697374657265640000600082015250565b600061371e601e83612d5e565b9150613729826136e8565b602082019050919050565b6000602082019050818103600083015261374d81613711565b9050919050565b7f596f7520686176656e277420736861726564206120726964652077697468207460008201527f6869732075736572000000000000000000000000000000000000000000000000602082015250565b60006137b0602883612d5e565b91506137bb82613754565b604082019050919050565b600060208201905081810360008301526137df816137a3565b9050919050565b7f4e487b7100000000000000000000000000000000000000000000000000000000600052601160045260246000fd5b600061382082612a81565b915061382b83612a81565b925082820261383981612a81565b915082820484148315176138505761384f6137e6565b5b5092915050565b600061386282612a81565b915061386d83612a81565b9250828201905080821115613885576138846137e6565b5b92915050565b7f4e487b7100000000000000000000000000000000000000000000000000000000600052601260045260246000fd5b60006138c582612a81565b91506138d083612a81565b9250826138e0576138df61388b565b5b828204905092915050565b7f4f6e6c79207269646572732063616e20706572666f726d20746869732061637460008201527f696f6e0000000000000000000000000000000000000000000000000000000000602082015250565b6000613947602383612d5e565b9150613952826138eb565b604082019050919050565b600060208201905081810360008301526139768161393a565b9050919050565b7f496e73756666696369656e74207061796d656e7420666f722072696465000000600082015250565b60006139b3601d83612d5e565b91506139be8261397d565b602082019050919050565b600060208201905081810360008301526139e2816139a6565b9050919050565b60006060820190508181036000830152613a038186612d99565b90508181036020830152613a178185612d99565b9050613a266040830184612a8b565b949350505050565b6000613a3982612a81565b91507fffffffffffffffffffffffffffffffffffffffffffffffffffffffffffffffff8203613a6b57613a6a6137e6565b5b600182019050919050565b7f4665652070657263656e7461676520746f6f2068696768000000000000000000600082015250565b6000613aac601783612d5e565b9150613ab782613a76565b602082019050919050565b60006020820190508181036000830152613adb81613a9f565b9050919050565b7f5269646520646f6573206e6f7420657869737400000000000000000000000000600082015250565b6000613b18601383612d5e565b9150613b2382613ae2565b602082019050919050565b60006020820190508181036000830152613b4781613b0b565b9050919050565b7f526964652063616e6e6f742062652063616e63656c6c65640000000000000000600082015250565b6000613b84601883612d5e565b9150613b8f82613b4e565b602082019050919050565b60006020820190508181036000830152613bb381613b77565b9050919050565b7f4f6e6c79207269646572206f72206472697665722063616e2063616e63656c00600082015250565b6000613bf0601f83612d5e565b9150613bfb82613bba565b602082019050919050565b60006020820190508181036000830152613c1f81613be3565b9050919050565b7f4f6e6c7920647269766572732063616e20706572666f726d207468697320616360008201527f74696f6e00000000000000000000000000000000000000000000000000000000602082015250565b6000613c82602483612d5e565b9150613c8d82613c26565b604082019050919050565b60006020820190508181036000830152613cb181613c75565b9050919050565b7f4f6e6c792061737369676e6564206472697665722063616e20636f6d706c657460008201527f6520746865207269646500000000000000000000000000000000000000000000602082015250565b6000613d14602a83612d5e565b9150613d1f82613cb8565b604082019050919050565b60006020820190508181036000830152613d4381613d07565b9050919050565b7f52696465206973206e6f7420696e2070726f6772657373000000000000000000600082015250565b6000613d80601783612d5e565b9150613d8b82613d4a565b602082019050919050565b60006020820190508181036000830152613daf81613d73565b9050919050565b6000613dc182612a81565b9150613dcc83612a81565b9250828203905081811115613de457613de36137e6565b5b92915050565b7f52696465206973206e6f7420617661696c61626c650000000000000000000000600082015250565b6000613e20601583612d5e565b9150613e2b82613dea565b602082019050919050565b60006020820190508181036000830152613e4f81613e13565b9050919050565b7f5269646520616c72656164792068617320612064726976657200000000000000600082015250565b6000613e8c601983612d5e565b9150613e9782613e56565b602082019050919050565b60006020820190508181036000830152613ebb81613e7f565b9050919050565b7f4f776e61626c653a206e6577206f776e657220697320746865207a65726f206160008201527f6464726573730000000000000000000000000000000000000000000000000000602082015250565b6000613f1e602683612d5e565b9150613f2982613ec2565b604082019050919050565b60006020820190508181036000830152613f4d81613f11565b9050919050565b7f5265656e7472616e637947756172643a207265656e7472616e742063616c6c00600082015250565b6000613f8a601f83612d5e565b9150613f9582613f54565b602082019050919050565b60006020820190508181036000830152613fb981613f7d565b9050919050565b7f4e487b7100000000000000000000000000000000000000000000000000000000600052603260045260246000fd5b7f4f776e61626c653a2063616c6c6572206973206e6f7420746865206f776e6572600082015250565b6000614025602083612d5e565b915061403082613fef565b602082019050919050565b6000602082019050818103600083015261405481614018565b9050919050565b7f4e487b7100000000000000000000000000000000000000000000000000000000600052603160045260246000fdfea2646970667358221220c2b95b7e7940b72fe91beb9db1c952a9d35a291125004a5459e822703fd8061164736f6c63430008140033",
  "linkReferences": {},
  "deployedLinkReferences": {}
}